{
  "_format": "hh-sol-artifact-1",
  "contractName": "Julia",
  "sourceName": "contracts/FractalArt.sol",
  "abi": [
    {
      "inputs": [],
      "stateMutability": "nonpayable",
      "type": "constructor"
    },
    {
      "anonymous": false,
      "inputs": [
        {
          "indexed": true,
          "internalType": "address",
          "name": "owner",
          "type": "address"
        },
        {
          "indexed": true,
          "internalType": "address",
          "name": "approved",
          "type": "address"
        },
        {
          "indexed": true,
          "internalType": "uint256",
          "name": "tokenId",
          "type": "uint256"
        }
      ],
      "name": "Approval",
      "type": "event"
    },
    {
      "anonymous": false,
      "inputs": [
        {
          "indexed": true,
          "internalType": "address",
          "name": "owner",
          "type": "address"
        },
        {
          "indexed": true,
          "internalType": "address",
          "name": "operator",
          "type": "address"
        },
        {
          "indexed": false,
          "internalType": "bool",
          "name": "approved",
          "type": "bool"
        }
      ],
      "name": "ApprovalForAll",
      "type": "event"
    },
    {
      "anonymous": false,
      "inputs": [
        {
          "indexed": true,
          "internalType": "address",
          "name": "sender",
          "type": "address"
        },
        {
          "indexed": true,
          "internalType": "address",
          "name": "receiver",
          "type": "address"
        },
        {
          "indexed": true,
          "internalType": "uint256",
          "name": "token_id",
          "type": "uint256"
        }
      ],
      "name": "MintedJulia",
      "type": "event"
    },
    {
      "anonymous": false,
      "inputs": [
        {
          "indexed": true,
          "internalType": "address",
          "name": "previousOwner",
          "type": "address"
        },
        {
          "indexed": true,
          "internalType": "address",
          "name": "newOwner",
          "type": "address"
        }
      ],
      "name": "OwnershipTransferred",
      "type": "event"
    },
    {
      "anonymous": false,
      "inputs": [
        {
          "indexed": true,
          "internalType": "uint256",
          "name": "token_id",
          "type": "uint256"
        },
        {
          "indexed": false,
          "internalType": "string",
          "name": "token_uri",
          "type": "string"
        }
      ],
      "name": "SetURI",
      "type": "event"
    },
    {
      "anonymous": false,
      "inputs": [
        {
          "indexed": true,
          "internalType": "address",
          "name": "from",
          "type": "address"
        },
        {
          "indexed": true,
          "internalType": "address",
          "name": "to",
          "type": "address"
        },
        {
          "indexed": true,
          "internalType": "uint256",
          "name": "tokenId",
          "type": "uint256"
        }
      ],
      "name": "Transfer",
      "type": "event"
    },
    {
      "inputs": [
        {
          "internalType": "address",
          "name": "to",
          "type": "address"
        },
        {
          "internalType": "uint256",
          "name": "tokenId",
          "type": "uint256"
        }
      ],
      "name": "approve",
      "outputs": [],
      "stateMutability": "nonpayable",
      "type": "function"
    },
    {
      "inputs": [
        {
          "internalType": "address",
          "name": "owner",
          "type": "address"
        }
      ],
      "name": "balanceOf",
      "outputs": [
        {
          "internalType": "uint256",
          "name": "",
          "type": "uint256"
        }
      ],
      "stateMutability": "view",
      "type": "function"
    },
    {
      "inputs": [],
      "name": "current_supply",
      "outputs": [
        {
          "internalType": "uint256",
          "name": "",
          "type": "uint256"
        }
      ],
      "stateMutability": "view",
      "type": "function"
    },
    {
      "inputs": [
        {
          "internalType": "uint256",
          "name": "id",
          "type": "uint256"
        },
        {
          "internalType": "string",
          "name": "token_uri",
          "type": "string"
        }
      ],
      "name": "fixURI",
      "outputs": [],
      "stateMutability": "nonpayable",
      "type": "function"
    },
    {
      "inputs": [
        {
          "internalType": "uint256",
          "name": "tokenId",
          "type": "uint256"
        }
      ],
      "name": "getApproved",
      "outputs": [
        {
          "internalType": "address",
          "name": "",
          "type": "address"
        }
      ],
      "stateMutability": "view",
      "type": "function"
    },
    {
      "inputs": [
        {
          "internalType": "address",
          "name": "owner",
          "type": "address"
        },
        {
          "internalType": "address",
          "name": "operator",
          "type": "address"
        }
      ],
      "name": "isApprovedForAll",
      "outputs": [
        {
          "internalType": "bool",
          "name": "",
          "type": "bool"
        }
      ],
      "stateMutability": "view",
      "type": "function"
    },
    {
      "inputs": [],
      "name": "max_per_address",
      "outputs": [
        {
          "internalType": "uint256",
          "name": "",
          "type": "uint256"
        }
      ],
      "stateMutability": "view",
      "type": "function"
    },
    {
      "inputs": [],
      "name": "max_supply",
      "outputs": [
        {
          "internalType": "uint256",
          "name": "",
          "type": "uint256"
        }
      ],
      "stateMutability": "view",
      "type": "function"
    },
    {
      "inputs": [
        {
          "internalType": "address",
          "name": "receiver",
          "type": "address"
        },
        {
          "internalType": "string",
          "name": "token_uri",
          "type": "string"
        }
      ],
      "name": "mintOne",
      "outputs": [],
      "stateMutability": "payable",
      "type": "function"
    },
    {
      "inputs": [],
      "name": "mint_price",
      "outputs": [
        {
          "internalType": "uint256",
          "name": "",
          "type": "uint256"
        }
      ],
      "stateMutability": "view",
      "type": "function"
    },
    {
      "inputs": [
        {
          "internalType": "address",
          "name": "",
          "type": "address"
        }
      ],
      "name": "minted",
      "outputs": [
        {
          "internalType": "uint256",
          "name": "",
          "type": "uint256"
        }
      ],
      "stateMutability": "view",
      "type": "function"
    },
    {
      "inputs": [],
      "name": "name",
      "outputs": [
        {
          "internalType": "string",
          "name": "",
          "type": "string"
        }
      ],
      "stateMutability": "view",
      "type": "function"
    },
    {
      "inputs": [],
      "name": "owner",
      "outputs": [
        {
          "internalType": "address",
          "name": "",
          "type": "address"
        }
      ],
      "stateMutability": "view",
      "type": "function"
    },
    {
      "inputs": [
        {
          "internalType": "uint256",
          "name": "tokenId",
          "type": "uint256"
        }
      ],
      "name": "ownerOf",
      "outputs": [
        {
          "internalType": "address",
          "name": "",
          "type": "address"
        }
      ],
      "stateMutability": "view",
      "type": "function"
    },
    {
      "inputs": [],
      "name": "renounceOwnership",
      "outputs": [],
      "stateMutability": "nonpayable",
      "type": "function"
    },
    {
      "inputs": [
        {
          "internalType": "uint256",
          "name": "_tokenId",
          "type": "uint256"
        },
        {
          "internalType": "uint256",
          "name": "_salePrice",
          "type": "uint256"
        }
      ],
      "name": "royaltyInfo",
      "outputs": [
        {
          "internalType": "address",
          "name": "receiver",
          "type": "address"
        },
        {
          "internalType": "uint256",
          "name": "royaltyAmount",
          "type": "uint256"
        }
      ],
      "stateMutability": "view",
      "type": "function"
    },
    {
      "inputs": [
        {
          "internalType": "address",
          "name": "from",
          "type": "address"
        },
        {
          "internalType": "address",
          "name": "to",
          "type": "address"
        },
        {
          "internalType": "uint256",
          "name": "tokenId",
          "type": "uint256"
        }
      ],
      "name": "safeTransferFrom",
      "outputs": [],
      "stateMutability": "nonpayable",
      "type": "function"
    },
    {
      "inputs": [
        {
          "internalType": "address",
          "name": "from",
          "type": "address"
        },
        {
          "internalType": "address",
          "name": "to",
          "type": "address"
        },
        {
          "internalType": "uint256",
          "name": "tokenId",
          "type": "uint256"
        },
        {
          "internalType": "bytes",
          "name": "_data",
          "type": "bytes"
        }
      ],
      "name": "safeTransferFrom",
      "outputs": [],
      "stateMutability": "nonpayable",
      "type": "function"
    },
    {
      "inputs": [
        {
          "internalType": "address",
          "name": "operator",
          "type": "address"
        },
        {
          "internalType": "bool",
          "name": "approved",
          "type": "bool"
        }
      ],
      "name": "setApprovalForAll",
      "outputs": [],
      "stateMutability": "nonpayable",
      "type": "function"
    },
    {
      "inputs": [
        {
          "internalType": "bytes4",
          "name": "interfaceId",
          "type": "bytes4"
        }
      ],
      "name": "supportsInterface",
      "outputs": [
        {
          "internalType": "bool",
          "name": "",
          "type": "bool"
        }
      ],
      "stateMutability": "view",
      "type": "function"
    },
    {
      "inputs": [],
      "name": "symbol",
      "outputs": [
        {
          "internalType": "string",
          "name": "",
          "type": "string"
        }
      ],
      "stateMutability": "view",
      "type": "function"
    },
    {
      "inputs": [
        {
          "internalType": "uint256",
          "name": "tokenId",
          "type": "uint256"
        }
      ],
      "name": "tokenURI",
      "outputs": [
        {
          "internalType": "string",
          "name": "",
          "type": "string"
        }
      ],
      "stateMutability": "view",
      "type": "function"
    },
    {
      "inputs": [
        {
          "internalType": "address",
          "name": "from",
          "type": "address"
        },
        {
          "internalType": "address",
          "name": "to",
          "type": "address"
        },
        {
          "internalType": "uint256",
          "name": "tokenId",
          "type": "uint256"
        }
      ],
      "name": "transferFrom",
      "outputs": [],
      "stateMutability": "nonpayable",
      "type": "function"
    },
    {
      "inputs": [
        {
          "internalType": "address",
          "name": "newOwner",
          "type": "address"
        }
      ],
      "name": "transferOwnership",
      "outputs": [],
      "stateMutability": "nonpayable",
      "type": "function"
    }
  ],
  "bytecode": "0x60806040526040518060400160405280601881526020017f4f6e6c792033206d696e74732070657220616464726573730000000000000000815250600c908051906020019062000051929190620002b8565b506040518060400160405280600f81526020017f416c6c204e465473206d696e7465640000000000000000000000000000000000815250600d90805190602001906200009f929190620002b8565b506040518060400160405280601381526020017f53656e64206d6f72652046544d2c207365722100000000000000000000000000815250600e9080519060200190620000ed929190620002b8565b50348015620000fb57600080fd5b506040518060400160405280600581526020017f4a756c69610000000000000000000000000000000000000000000000000000008152506040518060400160405280600381526020017f4a554c0000000000000000000000000000000000000000000000000000000000815250816000908051906020019062000180929190620002b8565b50806001908051906020019062000199929190620002b8565b505050620001bc620001b0620001ea60201b60201c565b620001f260201b60201c565b6103e860088190555060006009819055506003600a81905550678ac7230489e80000600b81905550620003cd565b600033905090565b6000600760009054906101000a900473ffffffffffffffffffffffffffffffffffffffff16905081600760006101000a81548173ffffffffffffffffffffffffffffffffffffffff021916908373ffffffffffffffffffffffffffffffffffffffff1602179055508173ffffffffffffffffffffffffffffffffffffffff168173ffffffffffffffffffffffffffffffffffffffff167f8be0079c531659141344cd1fd0a4f28419497f9722a3daafe3b4186f6b6457e060405160405180910390a35050565b828054620002c69062000368565b90600052602060002090601f016020900481019282620002ea576000855562000336565b82601f106200030557805160ff191683800117855562000336565b8280016001018555821562000336579182015b828111156200033557825182559160200191906001019062000318565b5b50905062000345919062000349565b5090565b5b80821115620003645760008160009055506001016200034a565b5090565b600060028204905060018216806200038157607f821691505b602082108114156200039857620003976200039e565b5b50919050565b7f4e487b7100000000000000000000000000000000000000000000000000000000600052602260045260246000fd5b61381a80620003dd6000396000f3fe60806040526004361061014b5760003560e01c8063712107b7116100b6578063b88d4fde1161006f578063b88d4fde146104a5578063c1c00690146104ce578063c87b56dd146104ea578063cd77224114610527578063e985e9c514610552578063f2fde38b1461058f5761014b565b8063712107b7146103bb578063715018a6146103e45780638a333b50146103fb5780638da5cb5b1461042657806395d89b4114610451578063a22cb4651461047c5761014b565b806323b872dd1161010857806323b872dd146102865780632a55205a146102af57806342842e0e146102ed5780636352211e146103165780636aea5f1b1461035357806370a082311461037e5761014b565b806301ffc9a71461015057806306fdde031461018d578063081812fc146101b8578063095ea7b3146101f55780631a4231a41461021e5780631e7269c514610249575b600080fd5b34801561015c57600080fd5b50610177600480360381019061017291906125a4565b6105b8565b6040516101849190612b41565b60405180910390f35b34801561019957600080fd5b506101a261069a565b6040516101af9190612b5c565b60405180910390f35b3480156101c457600080fd5b506101df60048036038101906101da91906125fe565b61072c565b6040516101ec9190612ab1565b60405180910390f35b34801561020157600080fd5b5061021c60048036038101906102179190612564565b6107b1565b005b34801561022a57600080fd5b506102336108c9565b6040516102409190612de0565b60405180910390f35b34801561025557600080fd5b50610270600480360381019061026b9190612358565b6108cf565b60405161027d9190612de0565b60405180910390f35b34801561029257600080fd5b506102ad60048036038101906102a891906123f2565b6108e7565b005b3480156102bb57600080fd5b506102d660048036038101906102d19190612687565b610947565b6040516102e4929190612b18565b60405180910390f35b3480156102f957600080fd5b50610314600480360381019061030f91906123f2565b6109ec565b005b34801561032257600080fd5b5061033d600480360381019061033891906125fe565b610a0c565b60405161034a9190612ab1565b60405180910390f35b34801561035f57600080fd5b50610368610abe565b6040516103759190612de0565b60405180910390f35b34801561038a57600080fd5b506103a560048036038101906103a09190612358565b610ac4565b6040516103b29190612de0565b60405180910390f35b3480156103c757600080fd5b506103e260048036038101906103dd919061262b565b610b7c565b005b3480156103f057600080fd5b506103f9610c3e565b005b34801561040757600080fd5b50610410610cc6565b60405161041d9190612de0565b60405180910390f35b34801561043257600080fd5b5061043b610ccc565b6040516104489190612ab1565b60405180910390f35b34801561045d57600080fd5b50610466610cf6565b6040516104739190612b5c565b60405180910390f35b34801561048857600080fd5b506104a3600480360381019061049e91906124c8565b610d88565b005b3480156104b157600080fd5b506104cc60048036038101906104c79190612445565b610f09565b005b6104e860048036038101906104e39190612508565b610f6b565b005b3480156104f657600080fd5b50610511600480360381019061050c91906125fe565b611270565b60405161051e9190612b5c565b60405180910390f35b34801561053357600080fd5b5061053c6113c2565b6040516105499190612de0565b60405180910390f35b34801561055e57600080fd5b50610579600480360381019061057491906123b2565b6113c8565b6040516105869190612b41565b60405180910390f35b34801561059b57600080fd5b506105b660048036038101906105b19190612358565b61145c565b005b60007f80ac58cd000000000000000000000000000000000000000000000000000000007bffffffffffffffffffffffffffffffffffffffffffffffffffffffff1916827bffffffffffffffffffffffffffffffffffffffffffffffffffffffff1916148061068357507f5b5e139f000000000000000000000000000000000000000000000000000000007bffffffffffffffffffffffffffffffffffffffffffffffffffffffff1916827bffffffffffffffffffffffffffffffffffffffffffffffffffffffff1916145b80610693575061069282611554565b5b9050919050565b6060600080546106a9906130a5565b80601f01602080910402602001604051908101604052809291908181526020018280546106d5906130a5565b80156107225780601f106106f757610100808354040283529160200191610722565b820191906000526020600020905b81548152906001019060200180831161070557829003601f168201915b5050505050905090565b6000610737826115be565b610776576040517f08c379a000000000000000000000000000000000000000000000000000000000815260040161076d90612d20565b60405180910390fd5b6004600083815260200190815260200160002060009054906101000a900473ffffffffffffffffffffffffffffffffffffffff169050919050565b60006107bc82610a0c565b90508073ffffffffffffffffffffffffffffffffffffffff168373ffffffffffffffffffffffffffffffffffffffff16141561082d576040517f08c379a000000000000000000000000000000000000000000000000000000000815260040161082490612da0565b60405180910390fd5b8073ffffffffffffffffffffffffffffffffffffffff1661084c61162a565b73ffffffffffffffffffffffffffffffffffffffff16148061087b575061087a8161087561162a565b6113c8565b5b6108ba576040517f08c379a00000000000000000000000000000000000000000000000000000000081526004016108b190612c60565b60405180910390fd5b6108c48383611632565b505050565b600b5481565b600f6020528060005260406000206000915090505481565b6108f86108f261162a565b826116eb565b610937576040517f08c379a000000000000000000000000000000000000000000000000000000000815260040161092e90612dc0565b60405180910390fd5b6109428383836117c9565b505050565b6000803073ffffffffffffffffffffffffffffffffffffffff16638da5cb5b6040518163ffffffff1660e01b815260040160206040518083038186803b15801561099057600080fd5b505afa1580156109a4573d6000803e3d6000fd5b505050506040513d601f19601f820116820180604052508101906109c89190612385565b915060648360026109d99190612f61565b6109e39190612f30565b90509250929050565b610a0783838360405180602001604052806000815250610f09565b505050565b6000806002600084815260200190815260200160002060009054906101000a900473ffffffffffffffffffffffffffffffffffffffff169050600073ffffffffffffffffffffffffffffffffffffffff168173ffffffffffffffffffffffffffffffffffffffff161415610ab5576040517f08c379a0000000000000000000000000000000000000000000000000000000008152600401610aac90612ca0565b60405180910390fd5b80915050919050565b60095481565b60008073ffffffffffffffffffffffffffffffffffffffff168273ffffffffffffffffffffffffffffffffffffffff161415610b35576040517f08c379a0000000000000000000000000000000000000000000000000000000008152600401610b2c90612c80565b60405180910390fd5b600360008373ffffffffffffffffffffffffffffffffffffffff1673ffffffffffffffffffffffffffffffffffffffff168152602001908152602001600020549050919050565b610b8461162a565b73ffffffffffffffffffffffffffffffffffffffff16610ba2610ccc565b73ffffffffffffffffffffffffffffffffffffffff1614610bf8576040517f08c379a0000000000000000000000000000000000000000000000000000000008152600401610bef90612d40565b60405180910390fd5b610c028282611a25565b817fee1bb82f380189104b74a7647d26f2f35679780e816626ffcaec7cafb7288e4682604051610c329190612b5c565b60405180910390a25050565b610c4661162a565b73ffffffffffffffffffffffffffffffffffffffff16610c64610ccc565b73ffffffffffffffffffffffffffffffffffffffff1614610cba576040517f08c379a0000000000000000000000000000000000000000000000000000000008152600401610cb190612d40565b60405180910390fd5b610cc46000611a99565b565b60085481565b6000600760009054906101000a900473ffffffffffffffffffffffffffffffffffffffff16905090565b606060018054610d05906130a5565b80601f0160208091040260200160405190810160405280929190818152602001828054610d31906130a5565b8015610d7e5780601f10610d5357610100808354040283529160200191610d7e565b820191906000526020600020905b815481529060010190602001808311610d6157829003601f168201915b5050505050905090565b610d9061162a565b73ffffffffffffffffffffffffffffffffffffffff168273ffffffffffffffffffffffffffffffffffffffff161415610dfe576040517f08c379a0000000000000000000000000000000000000000000000000000000008152600401610df590612c20565b60405180910390fd5b8060056000610e0b61162a565b73ffffffffffffffffffffffffffffffffffffffff1673ffffffffffffffffffffffffffffffffffffffff16815260200190815260200160002060008473ffffffffffffffffffffffffffffffffffffffff1673ffffffffffffffffffffffffffffffffffffffff16815260200190815260200160002060006101000a81548160ff0219169083151502179055508173ffffffffffffffffffffffffffffffffffffffff16610eb861162a565b73ffffffffffffffffffffffffffffffffffffffff167f17307eab39ab6107e8899845ad3d59bd9653f200f220920489ca2b5937696c3183604051610efd9190612b41565b60405180910390a35050565b610f1a610f1461162a565b836116eb565b610f59576040517f08c379a0000000000000000000000000000000000000000000000000000000008152600401610f5090612dc0565b60405180910390fd5b610f6584848484611b5f565b50505050565b600a54600f60003373ffffffffffffffffffffffffffffffffffffffff1673ffffffffffffffffffffffffffffffffffffffff1681526020019081526020016000205410600c90610ff2576040517f08c379a0000000000000000000000000000000000000000000000000000000008152600401610fe99190612b7e565b60405180910390fd5b5060085460095410600d9061103d576040517f08c379a00000000000000000000000000000000000000000000000000000000081526004016110349190612b7e565b60405180910390fd5b50600b54341015600e90611087576040517f08c379a000000000000000000000000000000000000000000000000000000000815260040161107e9190612b7e565b60405180910390fd5b503073ffffffffffffffffffffffffffffffffffffffff16638da5cb5b6040518163ffffffff1660e01b815260040160206040518083038186803b1580156110ce57600080fd5b505afa1580156110e2573d6000803e3d6000fd5b505050506040513d601f19601f820116820180604052508101906111069190612385565b73ffffffffffffffffffffffffffffffffffffffff166108fc349081150290604051600060405180830381858888f1935050505015801561114b573d6000803e3d6000fd5b506001600f60003373ffffffffffffffffffffffffffffffffffffffff1673ffffffffffffffffffffffffffffffffffffffff168152602001908152602001600020600082825461119c9190612eda565b92505081905550600060095490506001600960008282546111bd9190612eda565b925050819055506111ce8382611bbb565b6111d88183611a25565b808373ffffffffffffffffffffffffffffffffffffffff163373ffffffffffffffffffffffffffffffffffffffff167fba60c5bf611aeb7f98ffb2821e4ca19b5bff29a251cb08ab701f3fd29deeef1560405160405180910390a4807fee1bb82f380189104b74a7647d26f2f35679780e816626ffcaec7cafb7288e46836040516112639190612b5c565b60405180910390a2505050565b606061127b826115be565b6112ba576040517f08c379a00000000000000000000000000000000000000000000000000000000081526004016112b190612d00565b60405180910390fd5b60006006600084815260200190815260200160002080546112da906130a5565b80601f0160208091040260200160405190810160405280929190818152602001828054611306906130a5565b80156113535780601f1061132857610100808354040283529160200191611353565b820191906000526020600020905b81548152906001019060200180831161133657829003601f168201915b505050505090506000611364611d89565b905060008151141561137a5781925050506113bd565b6000825111156113af578082604051602001611397929190612a8d565b604051602081830303815290604052925050506113bd565b6113b884611da0565b925050505b919050565b600a5481565b6000600560008473ffffffffffffffffffffffffffffffffffffffff1673ffffffffffffffffffffffffffffffffffffffff16815260200190815260200160002060008373ffffffffffffffffffffffffffffffffffffffff1673ffffffffffffffffffffffffffffffffffffffff16815260200190815260200160002060009054906101000a900460ff16905092915050565b61146461162a565b73ffffffffffffffffffffffffffffffffffffffff16611482610ccc565b73ffffffffffffffffffffffffffffffffffffffff16146114d8576040517f08c379a00000000000000000000000000000000000000000000000000000000081526004016114cf90612d40565b60405180910390fd5b600073ffffffffffffffffffffffffffffffffffffffff168173ffffffffffffffffffffffffffffffffffffffff161415611548576040517f08c379a000000000000000000000000000000000000000000000000000000000815260040161153f90612bc0565b60405180910390fd5b61155181611a99565b50565b60007f01ffc9a7000000000000000000000000000000000000000000000000000000007bffffffffffffffffffffffffffffffffffffffffffffffffffffffff1916827bffffffffffffffffffffffffffffffffffffffffffffffffffffffff1916149050919050565b60008073ffffffffffffffffffffffffffffffffffffffff166002600084815260200190815260200160002060009054906101000a900473ffffffffffffffffffffffffffffffffffffffff1673ffffffffffffffffffffffffffffffffffffffff1614159050919050565b600033905090565b816004600083815260200190815260200160002060006101000a81548173ffffffffffffffffffffffffffffffffffffffff021916908373ffffffffffffffffffffffffffffffffffffffff160217905550808273ffffffffffffffffffffffffffffffffffffffff166116a583610a0c565b73ffffffffffffffffffffffffffffffffffffffff167f8c5be1e5ebec7d5bd14f71427d1e84f3dd0314c0f7b2291e5b200ac8c7c3b92560405160405180910390a45050565b60006116f6826115be565b611735576040517f08c379a000000000000000000000000000000000000000000000000000000000815260040161172c90612c40565b60405180910390fd5b600061174083610a0c565b90508073ffffffffffffffffffffffffffffffffffffffff168473ffffffffffffffffffffffffffffffffffffffff1614806117af57508373ffffffffffffffffffffffffffffffffffffffff166117978461072c565b73ffffffffffffffffffffffffffffffffffffffff16145b806117c057506117bf81856113c8565b5b91505092915050565b8273ffffffffffffffffffffffffffffffffffffffff166117e982610a0c565b73ffffffffffffffffffffffffffffffffffffffff161461183f576040517f08c379a000000000000000000000000000000000000000000000000000000000815260040161183690612d60565b60405180910390fd5b600073ffffffffffffffffffffffffffffffffffffffff168273ffffffffffffffffffffffffffffffffffffffff1614156118af576040517f08c379a00000000000000000000000000000000000000000000000000000000081526004016118a690612c00565b60405180910390fd5b6118ba838383611e47565b6118c5600082611632565b6001600360008573ffffffffffffffffffffffffffffffffffffffff1673ffffffffffffffffffffffffffffffffffffffff16815260200190815260200160002060008282546119159190612fbb565b925050819055506001600360008473ffffffffffffffffffffffffffffffffffffffff1673ffffffffffffffffffffffffffffffffffffffff168152602001908152602001600020600082825461196c9190612eda565b92505081905550816002600083815260200190815260200160002060006101000a81548173ffffffffffffffffffffffffffffffffffffffff021916908373ffffffffffffffffffffffffffffffffffffffff160217905550808273ffffffffffffffffffffffffffffffffffffffff168473ffffffffffffffffffffffffffffffffffffffff167fddf252ad1be2c89b69c2b068fc378daa952ba7f163c4a11628f55a4df523b3ef60405160405180910390a4505050565b611a2e826115be565b611a6d576040517f08c379a0000000000000000000000000000000000000000000000000000000008152600401611a6490612cc0565b60405180910390fd5b80600660008481526020019081526020016000209080519060200190611a94929190612157565b505050565b6000600760009054906101000a900473ffffffffffffffffffffffffffffffffffffffff16905081600760006101000a81548173ffffffffffffffffffffffffffffffffffffffff021916908373ffffffffffffffffffffffffffffffffffffffff1602179055508173ffffffffffffffffffffffffffffffffffffffff168173ffffffffffffffffffffffffffffffffffffffff167f8be0079c531659141344cd1fd0a4f28419497f9722a3daafe3b4186f6b6457e060405160405180910390a35050565b611b6a8484846117c9565b611b7684848484611e4c565b611bb5576040517f08c379a0000000000000000000000000000000000000000000000000000000008152600401611bac90612ba0565b60405180910390fd5b50505050565b600073ffffffffffffffffffffffffffffffffffffffff168273ffffffffffffffffffffffffffffffffffffffff161415611c2b576040517f08c379a0000000000000000000000000000000000000000000000000000000008152600401611c2290612ce0565b60405180910390fd5b611c34816115be565b15611c74576040517f08c379a0000000000000000000000000000000000000000000000000000000008152600401611c6b90612be0565b60405180910390fd5b611c8060008383611e47565b6001600360008473ffffffffffffffffffffffffffffffffffffffff1673ffffffffffffffffffffffffffffffffffffffff1681526020019081526020016000206000828254611cd09190612eda565b92505081905550816002600083815260200190815260200160002060006101000a81548173ffffffffffffffffffffffffffffffffffffffff021916908373ffffffffffffffffffffffffffffffffffffffff160217905550808273ffffffffffffffffffffffffffffffffffffffff16600073ffffffffffffffffffffffffffffffffffffffff167fddf252ad1be2c89b69c2b068fc378daa952ba7f163c4a11628f55a4df523b3ef60405160405180910390a45050565b606060405180602001604052806000815250905090565b6060611dab826115be565b611dea576040517f08c379a0000000000000000000000000000000000000000000000000000000008152600401611de190612d80565b60405180910390fd5b6000611df4611d89565b90506000815111611e145760405180602001604052806000815250611e3f565b80611e1e84611fe3565b604051602001611e2f929190612a8d565b6040516020818303038152906040525b915050919050565b505050565b6000611e6d8473ffffffffffffffffffffffffffffffffffffffff16612144565b15611fd6578373ffffffffffffffffffffffffffffffffffffffff1663150b7a02611e9661162a565b8786866040518563ffffffff1660e01b8152600401611eb89493929190612acc565b602060405180830381600087803b158015611ed257600080fd5b505af1925050508015611f0357506040513d601f19601f82011682018060405250810190611f0091906125d1565b60015b611f86573d8060008114611f33576040519150601f19603f3d011682016040523d82523d6000602084013e611f38565b606091505b50600081511415611f7e576040517f08c379a0000000000000000000000000000000000000000000000000000000008152600401611f7590612ba0565b60405180910390fd5b805181602001fd5b63150b7a0260e01b7bffffffffffffffffffffffffffffffffffffffffffffffffffffffff1916817bffffffffffffffffffffffffffffffffffffffffffffffffffffffff191614915050611fdb565b600190505b949350505050565b6060600082141561202b576040518060400160405280600181526020017f3000000000000000000000000000000000000000000000000000000000000000815250905061213f565b600082905060005b6000821461205d57808061204690613108565b915050600a826120569190612f30565b9150612033565b60008167ffffffffffffffff8111156120795761207861323e565b5b6040519080825280601f01601f1916602001820160405280156120ab5781602001600182028036833780820191505090505b5090505b60008514612138576001826120c49190612fbb565b9150600a856120d39190613151565b60306120df9190612eda565b60f81b8183815181106120f5576120f461320f565b5b60200101907effffffffffffffffffffffffffffffffffffffffffffffffffffffffffffff1916908160001a905350600a856121319190612f30565b94506120af565b8093505050505b919050565b600080823b905060008111915050919050565b828054612163906130a5565b90600052602060002090601f01602090048101928261218557600085556121cc565b82601f1061219e57805160ff19168380011785556121cc565b828001600101855582156121cc579182015b828111156121cb5782518255916020019190600101906121b0565b5b5090506121d991906121dd565b5090565b5b808211156121f65760008160009055506001016121de565b5090565b600061220d61220884612e20565b612dfb565b90508281526020810184848401111561222957612228613272565b5b612234848285613063565b509392505050565b600061224f61224a84612e51565b612dfb565b90508281526020810184848401111561226b5761226a613272565b5b612276848285613063565b509392505050565b60008135905061228d81613788565b92915050565b6000815190506122a281613788565b92915050565b6000813590506122b78161379f565b92915050565b6000813590506122cc816137b6565b92915050565b6000815190506122e1816137b6565b92915050565b600082601f8301126122fc576122fb61326d565b5b813561230c8482602086016121fa565b91505092915050565b600082601f83011261232a5761232961326d565b5b813561233a84826020860161223c565b91505092915050565b600081359050612352816137cd565b92915050565b60006020828403121561236e5761236d61327c565b5b600061237c8482850161227e565b91505092915050565b60006020828403121561239b5761239a61327c565b5b60006123a984828501612293565b91505092915050565b600080604083850312156123c9576123c861327c565b5b60006123d78582860161227e565b92505060206123e88582860161227e565b9150509250929050565b60008060006060848603121561240b5761240a61327c565b5b60006124198682870161227e565b935050602061242a8682870161227e565b925050604061243b86828701612343565b9150509250925092565b6000806000806080858703121561245f5761245e61327c565b5b600061246d8782880161227e565b945050602061247e8782880161227e565b935050604061248f87828801612343565b925050606085013567ffffffffffffffff8111156124b0576124af613277565b5b6124bc878288016122e7565b91505092959194509250565b600080604083850312156124df576124de61327c565b5b60006124ed8582860161227e565b92505060206124fe858286016122a8565b9150509250929050565b6000806040838503121561251f5761251e61327c565b5b600061252d8582860161227e565b925050602083013567ffffffffffffffff81111561254e5761254d613277565b5b61255a85828601612315565b9150509250929050565b6000806040838503121561257b5761257a61327c565b5b60006125898582860161227e565b925050602061259a85828601612343565b9150509250929050565b6000602082840312156125ba576125b961327c565b5b60006125c8848285016122bd565b91505092915050565b6000602082840312156125e7576125e661327c565b5b60006125f5848285016122d2565b91505092915050565b6000602082840312156126145761261361327c565b5b600061262284828501612343565b91505092915050565b600080604083850312156126425761264161327c565b5b600061265085828601612343565b925050602083013567ffffffffffffffff81111561267157612670613277565b5b61267d85828601612315565b9150509250929050565b6000806040838503121561269e5761269d61327c565b5b60006126ac85828601612343565b92505060206126bd85828601612343565b9150509250929050565b6126d081612fef565b82525050565b6126df81613001565b82525050565b60006126f082612e97565b6126fa8185612ead565b935061270a818560208601613072565b61271381613281565b840191505092915050565b600061272982612ea2565b6127338185612ebe565b9350612743818560208601613072565b61274c81613281565b840191505092915050565b600061276282612ea2565b61276c8185612ecf565b935061277c818560208601613072565b80840191505092915050565b60008154612795816130a5565b61279f8186612ebe565b945060018216600081146127ba57600181146127cc576127ff565b60ff19831686526020860193506127ff565b6127d585612e82565b60005b838110156127f7578154818901526001820191506020810190506127d8565b808801955050505b50505092915050565b6000612815603283612ebe565b915061282082613292565b604082019050919050565b6000612838602683612ebe565b9150612843826132e1565b604082019050919050565b600061285b601c83612ebe565b915061286682613330565b602082019050919050565b600061287e602483612ebe565b915061288982613359565b604082019050919050565b60006128a1601983612ebe565b91506128ac826133a8565b602082019050919050565b60006128c4602c83612ebe565b91506128cf826133d1565b604082019050919050565b60006128e7603883612ebe565b91506128f282613420565b604082019050919050565b600061290a602a83612ebe565b91506129158261346f565b604082019050919050565b600061292d602983612ebe565b9150612938826134be565b604082019050919050565b6000612950602e83612ebe565b915061295b8261350d565b604082019050919050565b6000612973602083612ebe565b915061297e8261355c565b602082019050919050565b6000612996603183612ebe565b91506129a182613585565b604082019050919050565b60006129b9602c83612ebe565b91506129c4826135d4565b604082019050919050565b60006129dc602083612ebe565b91506129e782613623565b602082019050919050565b60006129ff602983612ebe565b9150612a0a8261364c565b604082019050919050565b6000612a22602f83612ebe565b9150612a2d8261369b565b604082019050919050565b6000612a45602183612ebe565b9150612a50826136ea565b604082019050919050565b6000612a68603183612ebe565b9150612a7382613739565b604082019050919050565b612a8781613059565b82525050565b6000612a998285612757565b9150612aa58284612757565b91508190509392505050565b6000602082019050612ac660008301846126c7565b92915050565b6000608082019050612ae160008301876126c7565b612aee60208301866126c7565b612afb6040830185612a7e565b8181036060830152612b0d81846126e5565b905095945050505050565b6000604082019050612b2d60008301856126c7565b612b3a6020830184612a7e565b9392505050565b6000602082019050612b5660008301846126d6565b92915050565b60006020820190508181036000830152612b76818461271e565b905092915050565b60006020820190508181036000830152612b988184612788565b905092915050565b60006020820190508181036000830152612bb981612808565b9050919050565b60006020820190508181036000830152612bd98161282b565b9050919050565b60006020820190508181036000830152612bf98161284e565b9050919050565b60006020820190508181036000830152612c1981612871565b9050919050565b60006020820190508181036000830152612c3981612894565b9050919050565b60006020820190508181036000830152612c59816128b7565b9050919050565b60006020820190508181036000830152612c79816128da565b9050919050565b60006020820190508181036000830152612c99816128fd565b9050919050565b60006020820190508181036000830152612cb981612920565b9050919050565b60006020820190508181036000830152612cd981612943565b9050919050565b60006020820190508181036000830152612cf981612966565b9050919050565b60006020820190508181036000830152612d1981612989565b9050919050565b60006020820190508181036000830152612d39816129ac565b9050919050565b60006020820190508181036000830152612d59816129cf565b9050919050565b60006020820190508181036000830152612d79816129f2565b9050919050565b60006020820190508181036000830152612d9981612a15565b9050919050565b60006020820190508181036000830152612db981612a38565b9050919050565b60006020820190508181036000830152612dd981612a5b565b9050919050565b6000602082019050612df56000830184612a7e565b92915050565b6000612e05612e16565b9050612e1182826130d7565b919050565b6000604051905090565b600067ffffffffffffffff821115612e3b57612e3a61323e565b5b612e4482613281565b9050602081019050919050565b600067ffffffffffffffff821115612e6c57612e6b61323e565b5b612e7582613281565b9050602081019050919050565b60008190508160005260206000209050919050565b600081519050919050565b600081519050919050565b600082825260208201905092915050565b600082825260208201905092915050565b600081905092915050565b6000612ee582613059565b9150612ef083613059565b9250827fffffffffffffffffffffffffffffffffffffffffffffffffffffffffffffffff03821115612f2557612f24613182565b5b828201905092915050565b6000612f3b82613059565b9150612f4683613059565b925082612f5657612f556131b1565b5b828204905092915050565b6000612f6c82613059565b9150612f7783613059565b9250817fffffffffffffffffffffffffffffffffffffffffffffffffffffffffffffffff0483118215151615612fb057612faf613182565b5b828202905092915050565b6000612fc682613059565b9150612fd183613059565b925082821015612fe457612fe3613182565b5b828203905092915050565b6000612ffa82613039565b9050919050565b60008115159050919050565b60007fffffffff0000000000000000000000000000000000000000000000000000000082169050919050565b600073ffffffffffffffffffffffffffffffffffffffff82169050919050565b6000819050919050565b82818337600083830152505050565b60005b83811015613090578082015181840152602081019050613075565b8381111561309f576000848401525b50505050565b600060028204905060018216806130bd57607f821691505b602082108114156130d1576130d06131e0565b5b50919050565b6130e082613281565b810181811067ffffffffffffffff821117156130ff576130fe61323e565b5b80604052505050565b600061311382613059565b91507fffffffffffffffffffffffffffffffffffffffffffffffffffffffffffffffff82141561314657613145613182565b5b600182019050919050565b600061315c82613059565b915061316783613059565b925082613177576131766131b1565b5b828206905092915050565b7f4e487b7100000000000000000000000000000000000000000000000000000000600052601160045260246000fd5b7f4e487b7100000000000000000000000000000000000000000000000000000000600052601260045260246000fd5b7f4e487b7100000000000000000000000000000000000000000000000000000000600052602260045260246000fd5b7f4e487b7100000000000000000000000000000000000000000000000000000000600052603260045260246000fd5b7f4e487b7100000000000000000000000000000000000000000000000000000000600052604160045260246000fd5b600080fd5b600080fd5b600080fd5b600080fd5b6000601f19601f8301169050919050565b7f4552433732313a207472616e7366657220746f206e6f6e20455243373231526560008201527f63656976657220696d706c656d656e7465720000000000000000000000000000602082015250565b7f4f776e61626c653a206e6577206f776e657220697320746865207a65726f206160008201527f6464726573730000000000000000000000000000000000000000000000000000602082015250565b7f4552433732313a20746f6b656e20616c7265616479206d696e74656400000000600082015250565b7f4552433732313a207472616e7366657220746f20746865207a65726f2061646460008201527f7265737300000000000000000000000000000000000000000000000000000000602082015250565b7f4552433732313a20617070726f766520746f2063616c6c657200000000000000600082015250565b7f4552433732313a206f70657261746f7220717565727920666f72206e6f6e657860008201527f697374656e7420746f6b656e0000000000000000000000000000000000000000602082015250565b7f4552433732313a20617070726f76652063616c6c6572206973206e6f74206f7760008201527f6e6572206e6f7220617070726f76656420666f7220616c6c0000000000000000602082015250565b7f4552433732313a2062616c616e636520717565727920666f7220746865207a6560008201527f726f206164647265737300000000000000000000000000000000000000000000602082015250565b7f4552433732313a206f776e657220717565727920666f72206e6f6e657869737460008201527f656e7420746f6b656e0000000000000000000000000000000000000000000000602082015250565b7f45524337323155524953746f726167653a2055524920736574206f66206e6f6e60008201527f6578697374656e7420746f6b656e000000000000000000000000000000000000602082015250565b7f4552433732313a206d696e7420746f20746865207a65726f2061646472657373600082015250565b7f45524337323155524953746f726167653a2055524920717565727920666f722060008201527f6e6f6e6578697374656e7420746f6b656e000000000000000000000000000000602082015250565b7f4552433732313a20617070726f76656420717565727920666f72206e6f6e657860008201527f697374656e7420746f6b656e0000000000000000000000000000000000000000602082015250565b7f4f776e61626c653a2063616c6c6572206973206e6f7420746865206f776e6572600082015250565b7f4552433732313a207472616e73666572206f6620746f6b656e2074686174206960008201527f73206e6f74206f776e0000000000000000000000000000000000000000000000602082015250565b7f4552433732314d657461646174613a2055524920717565727920666f72206e6f60008201527f6e6578697374656e7420746f6b656e0000000000000000000000000000000000602082015250565b7f4552433732313a20617070726f76616c20746f2063757272656e74206f776e6560008201527f7200000000000000000000000000000000000000000000000000000000000000602082015250565b7f4552433732313a207472616e736665722063616c6c6572206973206e6f74206f60008201527f776e6572206e6f7220617070726f766564000000000000000000000000000000602082015250565b61379181612fef565b811461379c57600080fd5b50565b6137a881613001565b81146137b357600080fd5b50565b6137bf8161300d565b81146137ca57600080fd5b50565b6137d681613059565b81146137e157600080fd5b5056fea26469706673582212200c5963314be6c1c5b718e9f027aca4a5e0830a6b8a4ddef2545091b625bf578364736f6c63430008070033",
  "linkReferences": {},
  "deployedLinkReferences": {}
}